{
  "_format": "hh-sol-artifact-1",
  "contractName": "WavePortal",
  "sourceName": "contracts/WavePortal.sol",
  "abi": [
    {
      "inputs": [],
      "stateMutability": "payable",
      "type": "constructor"
    },
    {
      "anonymous": false,
      "inputs": [
        {
          "indexed": true,
          "internalType": "address",
          "name": "from",
          "type": "address"
        },
        {
          "indexed": false,
          "internalType": "uint256",
          "name": "timestamp",
          "type": "uint256"
        },
        {
          "indexed": false,
          "internalType": "string",
          "name": "message",
          "type": "string"
        }
      ],
      "name": "NewWave",
      "type": "event"
    },
    {
      "inputs": [],
      "name": "getAllWaves",
      "outputs": [
        {
          "components": [
            {
              "internalType": "address",
              "name": "waver",
              "type": "address"
            },
            {
              "internalType": "string",
              "name": "message",
              "type": "string"
            },
            {
              "internalType": "uint256",
              "name": "timestamp",
              "type": "uint256"
            }
          ],
          "internalType": "struct WavePortal.Wave[]",
          "name": "",
          "type": "tuple[]"
        }
      ],
      "stateMutability": "view",
      "type": "function"
    },
    {
      "inputs": [],
      "name": "getTotalWaveCount",
      "outputs": [
        {
          "internalType": "uint256",
          "name": "",
          "type": "uint256"
        }
      ],
      "stateMutability": "view",
      "type": "function"
    },
    {
      "inputs": [
        {
          "internalType": "address",
          "name": "",
          "type": "address"
        }
      ],
      "name": "lastWavedAt",
      "outputs": [
        {
          "internalType": "uint256",
          "name": "",
          "type": "uint256"
        }
      ],
      "stateMutability": "view",
      "type": "function"
    },
    {
      "inputs": [
        {
          "internalType": "string",
          "name": "_message",
          "type": "string"
        }
      ],
      "name": "wave",
      "outputs": [],
      "stateMutability": "nonpayable",
      "type": "function"
    }
  ],
  "bytecode": "0x60806040526200004f6040518060400160405280601e81526020017f4865796f21204920616d206120736d61727420636f6e7472616374203a2900008152506200007760201b620006391760201c565b606444426200005f9190620001c4565b6200006b919062000261565b60018190555062000308565b62000117816040516024016200008e919062000184565b6040516020818303038152906040527f41304fac000000000000000000000000000000000000000000000000000000007bffffffffffffffffffffffffffffffffffffffffffffffffffffffff19166020820180517bffffffffffffffffffffffffffffffffffffffffffffffffffffffff83818316178352505050506200011a60201b60201c565b50565b60008151905060006a636f6e736f6c652e6c6f679050602083016000808483855afa5050505050565b60006200015082620001a8565b6200015c8185620001b3565b93506200016e8185602086016200022b565b6200017981620002f7565b840191505092915050565b60006020820190508181036000830152620001a0818462000143565b905092915050565b600081519050919050565b600082825260208201905092915050565b6000620001d18262000221565b9150620001de8362000221565b9250827fffffffffffffffffffffffffffffffffffffffffffffffffffffffffffffffff0382111562000216576200021562000299565b5b828201905092915050565b6000819050919050565b60005b838110156200024b5780820151818401526020810190506200022e565b838111156200025b576000848401525b50505050565b60006200026e8262000221565b91506200027b8362000221565b9250826200028e576200028d620002c8565b5b828206905092915050565b7f4e487b7100000000000000000000000000000000000000000000000000000000600052601160045260246000fd5b7f4e487b7100000000000000000000000000000000000000000000000000000000600052601260045260246000fd5b6000601f19601f8301169050919050565b61116d80620003186000396000f3fe608060405234801561001057600080fd5b506004361061004c5760003560e01c80631990ff9314610051578063449d46c01461006f578063a42a46631461008b578063bd43a908146100bb575b600080fd5b6100596100d9565b6040516100669190610ce9565b60405180910390f35b6100896004803603810190610084919061097c565b6100e2565b005b6100a560048036038101906100a09190610953565b6104d0565b6040516100b29190610ce9565b60405180910390f35b6100c36104e8565b6040516100d09190610be5565b60405180910390f35b60008054905090565b42603c600360003373ffffffffffffffffffffffffffffffffffffffff1673ffffffffffffffffffffffffffffffffffffffff1681526020019081526020016000205461012f9190610dfb565b1061016f576040517f08c379a000000000000000000000000000000000000000000000000000000000815260040161016690610ca9565b60405180910390fd5b42600360003373ffffffffffffffffffffffffffffffffffffffff1673ffffffffffffffffffffffffffffffffffffffff1681526020019081526020016000208190555060016000808282546101c59190610dfb565b9250508190555061020b6040518060400160405280601281526020017f257320686173206a757374207761766564210000000000000000000000000000815250336106d2565b600260405180606001604052803373ffffffffffffffffffffffffffffffffffffffff16815260200183815260200142815250908060018154018082558091505060019003906000526020600020906003020160009091909190915060008201518160000160006101000a81548173ffffffffffffffffffffffffffffffffffffffff021916908373ffffffffffffffffffffffffffffffffffffffff16021790555060208201518160010190805190602001906102ca929190610833565b50604082015181600201555050606444426102e59190610dfb565b6102ef9190610f32565b6001819055506103366040518060400160405280601681526020017f52616e646f6d20232067656e6572617465643a2025640000000000000000000081525060015461076e565b60326001541161047d5761037f6040518060400160405280600781526020017f257320776f6e2100000000000000000000000000000000000000000000000000815250336106d2565b60006611c37937e080009050478111156103ce576040517f08c379a00000000000000000000000000000000000000000000000000000000081526004016103c590610c89565b60405180910390fd5b60003373ffffffffffffffffffffffffffffffffffffffff16826040516103f490610bd0565b60006040518083038185875af1925050503d8060008114610431576040519150601f19603f3d011682016040523d82523d6000602084013e610436565b606091505b505090508061047a576040517f08c379a000000000000000000000000000000000000000000000000000000000815260040161047190610cc9565b60405180910390fd5b50505b3373ffffffffffffffffffffffffffffffffffffffff167f5f7e16dc676677766a70e9c5628aa6c54ddb8b6e5188e2ae1e1f17f1ffbea71642836040516104c5929190610d04565b60405180910390a250565b60036020528060005260406000206000915090505481565b60606002805480602002602001604051908101604052809291908181526020016000905b8282101561063057838290600052602060002090600302016040518060600160405290816000820160009054906101000a900473ffffffffffffffffffffffffffffffffffffffff1673ffffffffffffffffffffffffffffffffffffffff1673ffffffffffffffffffffffffffffffffffffffff16815260200160018201805461059590610ecf565b80601f01602080910402602001604051908101604052809291908181526020018280546105c190610ecf565b801561060e5780601f106105e35761010080835404028352916020019161060e565b820191906000526020600020905b8154815290600101906020018083116105f157829003601f168201915b505050505081526020016002820154815250508152602001906001019061050c565b50505050905090565b6106cf8160405160240161064d9190610c07565b6040516020818303038152906040527f41304fac000000000000000000000000000000000000000000000000000000007bffffffffffffffffffffffffffffffffffffffffffffffffffffffff19166020820180517bffffffffffffffffffffffffffffffffffffffffffffffffffffffff838183161783525050505061080a565b50565b61076a82826040516024016106e8929190610c29565b6040516020818303038152906040527f319af333000000000000000000000000000000000000000000000000000000007bffffffffffffffffffffffffffffffffffffffffffffffffffffffff19166020820180517bffffffffffffffffffffffffffffffffffffffffffffffffffffffff838183161783525050505061080a565b5050565b6108068282604051602401610784929190610c59565b6040516020818303038152906040527f9710a9d0000000000000000000000000000000000000000000000000000000007bffffffffffffffffffffffffffffffffffffffffffffffffffffffff19166020820180517bffffffffffffffffffffffffffffffffffffffffffffffffffffffff838183161783525050505061080a565b5050565b60008151905060006a636f6e736f6c652e6c6f679050602083016000808483855afa5050505050565b82805461083f90610ecf565b90600052602060002090601f01602090048101928261086157600085556108a8565b82601f1061087a57805160ff19168380011785556108a8565b828001600101855582156108a8579182015b828111156108a757825182559160200191906001019061088c565b5b5090506108b591906108b9565b5090565b5b808211156108d25760008160009055506001016108ba565b5090565b60006108e96108e484610d59565b610d34565b90508281526020810184848401111561090157600080fd5b61090c848285610e8d565b509392505050565b60008135905061092381611120565b92915050565b600082601f83011261093a57600080fd5b813561094a8482602086016108d6565b91505092915050565b60006020828403121561096557600080fd5b600061097384828501610914565b91505092915050565b60006020828403121561098e57600080fd5b600082013567ffffffffffffffff8111156109a857600080fd5b6109b484828501610929565b91505092915050565b60006109c98383610b62565b905092915050565b6109da81610e51565b82525050565b6109e981610e51565b82525050565b60006109fa82610d9a565b610a048185610dbd565b935083602082028501610a1685610d8a565b8060005b85811015610a525784840389528151610a3385826109bd565b9450610a3e83610db0565b925060208a01995050600181019050610a1a565b50829750879550505050505092915050565b6000610a6f82610da5565b610a798185610dd9565b9350610a89818560208601610e9c565b610a928161101f565b840191505092915050565b6000610aa882610da5565b610ab28185610dea565b9350610ac2818560208601610e9c565b610acb8161101f565b840191505092915050565b6000610ae3603083610dea565b9150610aee82611030565b604082019050919050565b6000610b06602983610dea565b9150610b118261107f565b604082019050919050565b6000610b29602783610dea565b9150610b34826110ce565b604082019050919050565b6000610b4c600083610dce565b9150610b578261111d565b600082019050919050565b6000606083016000830151610b7a60008601826109d1565b5060208301518482036020860152610b928282610a64565b9150506040830151610ba76040860182610bb2565b508091505092915050565b610bbb81610e83565b82525050565b610bca81610e83565b82525050565b6000610bdb82610b3f565b9150819050919050565b60006020820190508181036000830152610bff81846109ef565b905092915050565b60006020820190508181036000830152610c218184610a9d565b905092915050565b60006040820190508181036000830152610c438185610a9d565b9050610c5260208301846109e0565b9392505050565b60006040820190508181036000830152610c738185610a9d565b9050610c826020830184610bc1565b9392505050565b60006020820190508181036000830152610ca281610ad6565b9050919050565b60006020820190508181036000830152610cc281610af9565b9050919050565b60006020820190508181036000830152610ce281610b1c565b9050919050565b6000602082019050610cfe6000830184610bc1565b92915050565b6000604082019050610d196000830185610bc1565b8181036020830152610d2b8184610a9d565b90509392505050565b6000610d3e610d4f565b9050610d4a8282610f01565b919050565b6000604051905090565b600067ffffffffffffffff821115610d7457610d73610ff0565b5b610d7d8261101f565b9050602081019050919050565b6000819050602082019050919050565b600081519050919050565b600081519050919050565b6000602082019050919050565b600082825260208201905092915050565b600081905092915050565b600082825260208201905092915050565b600082825260208201905092915050565b6000610e0682610e83565b9150610e1183610e83565b9250827fffffffffffffffffffffffffffffffffffffffffffffffffffffffffffffffff03821115610e4657610e45610f63565b5b828201905092915050565b6000610e5c82610e63565b9050919050565b600073ffffffffffffffffffffffffffffffffffffffff82169050919050565b6000819050919050565b82818337600083830152505050565b60005b83811015610eba578082015181840152602081019050610e9f565b83811115610ec9576000848401525b50505050565b60006002820490506001821680610ee757607f821691505b60208210811415610efb57610efa610fc1565b5b50919050565b610f0a8261101f565b810181811067ffffffffffffffff82111715610f2957610f28610ff0565b5b80604052505050565b6000610f3d82610e83565b9150610f4883610e83565b925082610f5857610f57610f92565b5b828206905092915050565b7f4e487b7100000000000000000000000000000000000000000000000000000000600052601160045260246000fd5b7f4e487b7100000000000000000000000000000000000000000000000000000000600052601260045260246000fd5b7f4e487b7100000000000000000000000000000000000000000000000000000000600052602260045260246000fd5b7f4e487b7100000000000000000000000000000000000000000000000000000000600052604160045260246000fd5b6000601f19601f8301169050919050565b7f547279696e6720746f207769746864726177206d6f72652024207468616e207460008201527f686520636f6e7472616374206861732100000000000000000000000000000000602082015250565b7f506c6561736520776169742061206d696e757465206265666f7265207761766960008201527f6e6720616761696e210000000000000000000000000000000000000000000000602082015250565b7f4661696c656420746f20776974686472617720242066726f6d2074686520636f60008201527f6e74726163742e00000000000000000000000000000000000000000000000000602082015250565b50565b61112981610e51565b811461113457600080fd5b5056fea2646970667358221220e04a73ef1abe69f283b203fe5b49d4933980694b7ce1e620b68123964fed2d0b64736f6c63430008040033",
  "linkReferences": {},
  "deployedLinkReferences": {}
}